{
  "abi": [
    {
      "type": "constructor",
      "inputs": [
        {
          "name": "_usdc",
          "type": "address",
          "internalType": "address"
        },
        {
          "name": "_freelancer",
          "type": "address",
          "internalType": "address"
        },
        {
          "name": "_customer",
          "type": "address",
          "internalType": "address"
        }
      ],
      "stateMutability": "nonpayable"
    },
    {
      "type": "receive",
      "stateMutability": "payable"
    },
    {
      "type": "function",
      "name": "CUSTOMER",
      "inputs": [],
      "outputs": [
        {
          "name": "",
          "type": "address",
          "internalType": "address"
        }
      ],
      "stateMutability": "view"
    },
    {
      "type": "function",
      "name": "FREELANCER",
      "inputs": [],
      "outputs": [
        {
          "name": "",
          "type": "address",
          "internalType": "address"
        }
      ],
      "stateMutability": "view"
    },
    {
      "type": "function",
      "name": "USDC",
      "inputs": [],
      "outputs": [
        {
          "name": "",
          "type": "address",
          "internalType": "contract IERC20"
        }
      ],
      "stateMutability": "view"
    },
    {
      "type": "function",
      "name": "approveCustomer",
      "inputs": [],
      "outputs": [],
      "stateMutability": "nonpayable"
    },
    {
      "type": "function",
      "name": "approveFreelancer",
      "inputs": [],
      "outputs": [],
      "stateMutability": "nonpayable"
    },
    {
      "type": "function",
      "name": "approveSystem",
      "inputs": [
        {
          "name": "toFreelancer",
          "type": "bool",
          "internalType": "bool"
        }
      ],
      "outputs": [],
      "stateMutability": "nonpayable"
    },
    {
      "type": "function",
      "name": "customerApproved",
      "inputs": [],
      "outputs": [
        {
          "name": "",
          "type": "bool",
          "internalType": "bool"
        }
      ],
      "stateMutability": "view"
    },
    {
      "type": "function",
      "name": "depositPol",
      "inputs": [],
      "outputs": [],
      "stateMutability": "payable"
    },
    {
      "type": "function",
      "name": "depositUsdc",
      "inputs": [
        {
          "name": "amount",
          "type": "uint256",
          "internalType": "uint256"
        }
      ],
      "outputs": [],
      "stateMutability": "nonpayable"
    },
    {
      "type": "function",
      "name": "freelancerApproved",
      "inputs": [],
      "outputs": [
        {
          "name": "",
          "type": "bool",
          "internalType": "bool"
        }
      ],
      "stateMutability": "view"
    },
    {
      "type": "function",
      "name": "owner",
      "inputs": [],
      "outputs": [
        {
          "name": "",
          "type": "address",
          "internalType": "address"
        }
      ],
      "stateMutability": "view"
    },
    {
      "type": "function",
      "name": "polDeposited",
      "inputs": [],
      "outputs": [
        {
          "name": "",
          "type": "uint256",
          "internalType": "uint256"
        }
      ],
      "stateMutability": "view"
    },
    {
      "type": "function",
      "name": "renounceOwnership",
      "inputs": [],
      "outputs": [],
      "stateMutability": "nonpayable"
    },
    {
      "type": "function",
      "name": "resolved",
      "inputs": [],
      "outputs": [
        {
          "name": "",
          "type": "bool",
          "internalType": "bool"
        }
      ],
      "stateMutability": "view"
    },
    {
      "type": "function",
      "name": "transferOwnership",
      "inputs": [
        {
          "name": "newOwner",
          "type": "address",
          "internalType": "address"
        }
      ],
      "outputs": [],
      "stateMutability": "nonpayable"
    },
    {
      "type": "function",
      "name": "usdcDeposited",
      "inputs": [],
      "outputs": [
        {
          "name": "",
          "type": "uint256",
          "internalType": "uint256"
        }
      ],
      "stateMutability": "view"
    },
    {
      "type": "event",
      "name": "CustomerApproved",
      "inputs": [],
      "anonymous": false
    },
    {
      "type": "event",
      "name": "FreelancerApproved",
      "inputs": [],
      "anonymous": false
    },
    {
      "type": "event",
      "name": "OwnershipTransferred",
      "inputs": [
        {
          "name": "previousOwner",
          "type": "address",
          "indexed": true,
          "internalType": "address"
        },
        {
          "name": "newOwner",
          "type": "address",
          "indexed": true,
          "internalType": "address"
        }
      ],
      "anonymous": false
    },
    {
      "type": "event",
      "name": "PolDeposited",
      "inputs": [
        {
          "name": "from",
          "type": "address",
          "indexed": true,
          "internalType": "address"
        },
        {
          "name": "amount",
          "type": "uint256",
          "indexed": false,
          "internalType": "uint256"
        }
      ],
      "anonymous": false
    },
    {
      "type": "event",
      "name": "RefundedToCustomer",
      "inputs": [
        {
          "name": "usdcAmount",
          "type": "uint256",
          "indexed": false,
          "internalType": "uint256"
        },
        {
          "name": "polAmount",
          "type": "uint256",
          "indexed": false,
          "internalType": "uint256"
        }
      ],
      "anonymous": false
    },
    {
      "type": "event",
      "name": "ReleasedToFreelancer",
      "inputs": [
        {
          "name": "usdcAmount",
          "type": "uint256",
          "indexed": false,
          "internalType": "uint256"
        },
        {
          "name": "polAmount",
          "type": "uint256",
          "indexed": false,
          "internalType": "uint256"
        }
      ],
      "anonymous": false
    },
    {
      "type": "event",
      "name": "SystemResolved",
      "inputs": [
        {
          "name": "toFreelancer",
          "type": "bool",
          "indexed": false,
          "internalType": "bool"
        }
      ],
      "anonymous": false
    },
    {
      "type": "event",
      "name": "UsdcDeposited",
      "inputs": [
        {
          "name": "from",
          "type": "address",
          "indexed": true,
          "internalType": "address"
        },
        {
          "name": "amount",
          "type": "uint256",
          "indexed": false,
          "internalType": "uint256"
        }
      ],
      "anonymous": false
    },
    {
      "type": "error",
      "name": "AlreadyResolved",
      "inputs": []
    },
    {
      "type": "error",
      "name": "NotCustomer",
      "inputs": []
    },
    {
      "type": "error",
      "name": "NotFreelancer",
      "inputs": []
    },
    {
      "type": "error",
      "name": "NothingToRelease",
      "inputs": []
    },
    {
      "type": "error",
      "name": "OwnableInvalidOwner",
      "inputs": [
        {
          "name": "owner",
          "type": "address",
          "internalType": "address"
        }
      ]
    },
    {
      "type": "error",
      "name": "OwnableUnauthorizedAccount",
      "inputs": [
        {
          "name": "account",
          "type": "address",
          "internalType": "address"
        }
      ]
    },
    {
      "type": "error",
      "name": "ReentrancyGuardReentrantCall",
      "inputs": []
    },
    {
      "type": "error",
      "name": "SafeERC20FailedOperation",
      "inputs": [
        {
          "name": "token",
          "type": "address",
          "internalType": "address"
        }
      ]
    },
    {
      "type": "error",
      "name": "TransferFailed",
      "inputs": []
    }
  ],
  "bytecode": {
    "object": "0x60e060405234801561000f575f5ffd5b5060405161194e38038061194e833981810160405281019061003191906102cb565b335f73ffffffffffffffffffffffffffffffffffffffff168173ffffffffffffffffffffffffffffffffffffffff16036100a2575f6040517f1e4fbdf7000000000000000000000000000000000000000000000000000000008152600401610099919061032a565b60405180910390fd5b6100b18161017a60201b60201c565b5060016100d06100c561023b60201b60201c565b61026460201b60201c565b5f01819055508273ffffffffffffffffffffffffffffffffffffffff1660808173ffffffffffffffffffffffffffffffffffffffff16815250508173ffffffffffffffffffffffffffffffffffffffff1660a08173ffffffffffffffffffffffffffffffffffffffff16815250508073ffffffffffffffffffffffffffffffffffffffff1660c08173ffffffffffffffffffffffffffffffffffffffff1681525050505050610343565b5f5f5f9054906101000a900473ffffffffffffffffffffffffffffffffffffffff169050815f5f6101000a81548173ffffffffffffffffffffffffffffffffffffffff021916908373ffffffffffffffffffffffffffffffffffffffff1602179055508173ffffffffffffffffffffffffffffffffffffffff168173ffffffffffffffffffffffffffffffffffffffff167f8be0079c531659141344cd1fd0a4f28419497f9722a3daafe3b4186f6b6457e060405160405180910390a35050565b5f7f9b779b17422d0df92223018b32b4d1fa46e071723d6817e2486d003becc55f005f1b905090565b5f819050919050565b5f5ffd5b5f73ffffffffffffffffffffffffffffffffffffffff82169050919050565b5f61029a82610271565b9050919050565b6102aa81610290565b81146102b4575f5ffd5b50565b5f815190506102c5816102a1565b92915050565b5f5f5f606084860312156102e2576102e161026d565b5b5f6102ef868287016102b7565b9350506020610300868287016102b7565b9250506040610311868287016102b7565b9150509250925092565b61032481610290565b82525050565b5f60208201905061033d5f83018461031b565b92915050565b60805160a05160c0516115946103ba5f395f8181610382015281816105ca0152818161085d015281816109aa01528181610e000152610e7201525f818161048801528181610a1f01528181610b750152610be701525f8181610675015281816109ce01528181610b970152610e2201526115945ff3fe6080604052600436106100f6575f3560e01c80637234b50211610089578063b8f7c8d311610058578063b8f7c8d3146102d2578063e1dbb339146102fc578063f2fde38b14610326578063f40a9ce41461034e57610136565b80637234b5021461022a57806389a30271146102545780638da5cb5b1461027e578063a486d4c4146102a857610136565b80633f6fa655116100c55780633f6fa655146101aa5780634e0fc531146101d45780634f0d2673146101fe578063715018a61461021457610136565b80630866ce1d1461013a5780631d20941b146101445780632357928e1461015a5780633793343c1461018257610136565b36610136576040517f08c379a000000000000000000000000000000000000000000000000000000000815260040161012d90611245565b60405180910390fd5b5f5ffd5b610142610378565b005b34801561014f575f5ffd5b5061015861047e565b005b348015610165575f5ffd5b50610180600480360381019061017b919061129a565b6105c0565b005b34801561018d575f5ffd5b506101a860048036038101906101a391906112fa565b610714565b005b3480156101b5575f5ffd5b506101be61082d565b6040516101cb9190611334565b60405180910390f35b3480156101df575f5ffd5b506101e8610840565b6040516101f59190611334565b60405180910390f35b348015610209575f5ffd5b50610212610853565b005b34801561021f575f5ffd5b50610228610995565b005b348015610235575f5ffd5b5061023e6109a8565b60405161024b919061138c565b60405180910390f35b34801561025f575f5ffd5b506102686109cc565b6040516102759190611400565b60405180910390f35b348015610289575f5ffd5b506102926109f0565b60405161029f919061138c565b60405180910390f35b3480156102b3575f5ffd5b506102bc610a17565b6040516102c99190611428565b60405180910390f35b3480156102dd575f5ffd5b506102e6610a1d565b6040516102f3919061138c565b60405180910390f35b348015610307575f5ffd5b50610310610a41565b60405161031d9190611428565b60405180910390f35b348015610331575f5ffd5b5061034c6004803603810190610347919061146b565b610a47565b005b348015610359575f5ffd5b50610362610acb565b60405161036f9190611334565b60405180910390f35b610380610add565b7f000000000000000000000000000000000000000000000000000000000000000073ffffffffffffffffffffffffffffffffffffffff163373ffffffffffffffffffffffffffffffffffffffff1614610405576040517fa8df5f3e00000000000000000000000000000000000000000000000000000000815260040160405180910390fd5b5f340315610474573460025f82825461041e91906114c3565b925050819055503373ffffffffffffffffffffffffffffffffffffffff167f7b9b5366ad04c7d05101a8af5ce145a6aafd28e7154676bc34183983e01826bd3460405161046b9190611428565b60405180910390a25b61047c610aff565b565b610486610add565b7f000000000000000000000000000000000000000000000000000000000000000073ffffffffffffffffffffffffffffffffffffffff163373ffffffffffffffffffffffffffffffffffffffff161461050b576040517f706470d200000000000000000000000000000000000000000000000000000000815260040160405180910390fd5b600360029054906101000a900460ff1615610552576040517f6d5703c200000000000000000000000000000000000000000000000000000000815260040160405180910390fd5b600160035f6101000a81548160ff0219169083151502179055507f715ce927a66bd76dd49a4505240c1daf7a6bc4cd180738f58976f4ea75ee434c60405160405180910390a1600360019054906101000a900460ff16156105b6576105b5610b19565b5b6105be610aff565b565b6105c8610add565b7f000000000000000000000000000000000000000000000000000000000000000073ffffffffffffffffffffffffffffffffffffffff163373ffffffffffffffffffffffffffffffffffffffff161461064d576040517fa8df5f3e00000000000000000000000000000000000000000000000000000000815260040160405180910390fd5b5f810315610709578060015f82825461066691906114c3565b925050819055506106ba3330837f000000000000000000000000000000000000000000000000000000000000000073ffffffffffffffffffffffffffffffffffffffff16610ce3909392919063ffffffff16565b3373ffffffffffffffffffffffffffffffffffffffff167f36e229bdaedfa85d503535ae31c3ac9e40d88f1ab4fa53870ef2da82df48e990826040516107009190611428565b60405180910390a25b610711610aff565b50565b61071c610d38565b610724610add565b600360029054906101000a900460ff161561076b576040517f6d5703c200000000000000000000000000000000000000000000000000000000815260040160405180910390fd5b5f60015414801561077d57505f600254145b156107b4576040517fb10205ed00000000000000000000000000000000000000000000000000000000815260040160405180910390fd5b6001600360026101000a81548160ff0219169083151502179055507f58575781fa1319fc968b5c1365e6af223b0f4bffb966bed2470f7253c98e23b1816040516107fe9190611334565b60405180910390a1801561081957610814610b19565b610822565b610821610dbf565b5b61082a610aff565b50565b600360029054906101000a900460ff1681565b600360019054906101000a900460ff1681565b61085b610add565b7f000000000000000000000000000000000000000000000000000000000000000073ffffffffffffffffffffffffffffffffffffffff163373ffffffffffffffffffffffffffffffffffffffff16146108e0576040517fa8df5f3e00000000000000000000000000000000000000000000000000000000815260040160405180910390fd5b600360029054906101000a900460ff1615610927576040517f6d5703c200000000000000000000000000000000000000000000000000000000815260040160405180910390fd5b6001600360016101000a81548160ff0219169083151502179055507fa7c4334d93bb341cd6928e45b46d42435c17682aff6d54aa006cbf48f9559c8760405160405180910390a160035f9054906101000a900460ff161561098b5761098a610b19565b5b610993610aff565b565b61099d610d38565b6109a65f610f6e565b565b7f000000000000000000000000000000000000000000000000000000000000000081565b7f000000000000000000000000000000000000000000000000000000000000000081565b5f5f5f9054906101000a900473ffffffffffffffffffffffffffffffffffffffff16905090565b60015481565b7f000000000000000000000000000000000000000000000000000000000000000081565b60025481565b610a4f610d38565b5f73ffffffffffffffffffffffffffffffffffffffff168173ffffffffffffffffffffffffffffffffffffffff1603610abf575f6040517f1e4fbdf7000000000000000000000000000000000000000000000000000000008152600401610ab6919061138c565b60405180910390fd5b610ac881610f6e565b50565b60035f9054906101000a900460ff1681565b610ae561102f565b6002610af7610af2611070565b611099565b5f0181905550565b6001610b11610b0c611070565b611099565b5f0181905550565b5f60015490505f60025490505f82148015610b3357505f81145b15610b3f575050610ce1565b5f6001819055505f6002819055506001600360026101000a81548160ff0219169083151502179055505f821115610bdc57610bdb7f0000000000000000000000000000000000000000000000000000000000000000837f000000000000000000000000000000000000000000000000000000000000000073ffffffffffffffffffffffffffffffffffffffff166110a29092919063ffffffff16565b5b5f811115610ca5575f7f000000000000000000000000000000000000000000000000000000000000000073ffffffffffffffffffffffffffffffffffffffff1682604051610c2990611523565b5f6040518083038185875af1925050503d805f8114610c63576040519150601f19603f3d011682016040523d82523d5f602084013e610c68565b606091505b5050905080610ca3576040517f90b8ec1800000000000000000000000000000000000000000000000000000000815260040160405180910390fd5b505b7fa99861e3dd5d55bb956b46e46e4dfd5cd572da42724efd2f9a4694cbb78cfa938282604051610cd6929190611537565b60405180910390a150505b565b610cf18484848460016110f5565b610d3257836040517f5274afe7000000000000000000000000000000000000000000000000000000008152600401610d29919061138c565b60405180910390fd5b50505050565b610d40611166565b73ffffffffffffffffffffffffffffffffffffffff16610d5e6109f0565b73ffffffffffffffffffffffffffffffffffffffff1614610dbd57610d81611166565b6040517f118cdaa7000000000000000000000000000000000000000000000000000000008152600401610db4919061138c565b60405180910390fd5b565b5f60015490505f60025490505f82148015610dd957505f81145b15610de5575050610f6c565b5f6001819055505f6002819055505f821115610e6757610e667f0000000000000000000000000000000000000000000000000000000000000000837f000000000000000000000000000000000000000000000000000000000000000073ffffffffffffffffffffffffffffffffffffffff166110a29092919063ffffffff16565b5b5f811115610f30575f7f000000000000000000000000000000000000000000000000000000000000000073ffffffffffffffffffffffffffffffffffffffff1682604051610eb490611523565b5f6040518083038185875af1925050503d805f8114610eee576040519150601f19603f3d011682016040523d82523d5f602084013e610ef3565b606091505b5050905080610f2e576040517f90b8ec1800000000000000000000000000000000000000000000000000000000815260040160405180910390fd5b505b7f2524247856c88e5a0d790abeb6abccff9868bb9af9cf64c24e8f3d6025a774f08282604051610f61929190611537565b60405180910390a150505b565b5f5f5f9054906101000a900473ffffffffffffffffffffffffffffffffffffffff169050815f5f6101000a81548173ffffffffffffffffffffffffffffffffffffffff021916908373ffffffffffffffffffffffffffffffffffffffff1602179055508173ffffffffffffffffffffffffffffffffffffffff168173ffffffffffffffffffffffffffffffffffffffff167f8be0079c531659141344cd1fd0a4f28419497f9722a3daafe3b4186f6b6457e060405160405180910390a35050565b61103761116d565b1561106e576040517f3ee5aeb500000000000000000000000000000000000000000000000000000000815260040160405180910390fd5b565b5f7f9b779b17422d0df92223018b32b4d1fa46e071723d6817e2486d003becc55f005f1b905090565b5f819050919050565b6110af8383836001611189565b6110f057826040517f5274afe70000000000000000000000000000000000000000000000000000000081526004016110e7919061138c565b60405180910390fd5b505050565b5f5f6323b872dd60e01b9050604051815f525f1960601c87166004525f1960601c86166024528460445260205f60645f5f8c5af1925060015f51148316611153578383151615611147573d5f823e3d81fd5b5f883b113d1516831692505b806040525f606052505095945050505050565b5f33905090565b5f600261118061117b611070565b611099565b5f015414905090565b5f5f63a9059cbb60e01b9050604051815f525f1960601c86166004528460245260205f60445f5f8b5af1925060015f511483166111dd5783831516156111d1573d5f823e3d81fd5b5f873b113d1516831692505b806040525050949350505050565b5f82825260208201905092915050565b7f557365206465706f736974506f6c2829000000000000000000000000000000005f82015250565b5f61122f6010836111eb565b915061123a826111fb565b602082019050919050565b5f6020820190508181035f83015261125c81611223565b9050919050565b5f5ffd5b5f819050919050565b61127981611267565b8114611283575f5ffd5b50565b5f8135905061129481611270565b92915050565b5f602082840312156112af576112ae611263565b5b5f6112bc84828501611286565b91505092915050565b5f8115159050919050565b6112d9816112c5565b81146112e3575f5ffd5b50565b5f813590506112f4816112d0565b92915050565b5f6020828403121561130f5761130e611263565b5b5f61131c848285016112e6565b91505092915050565b61132e816112c5565b82525050565b5f6020820190506113475f830184611325565b92915050565b5f73ffffffffffffffffffffffffffffffffffffffff82169050919050565b5f6113768261134d565b9050919050565b6113868161136c565b82525050565b5f60208201905061139f5f83018461137d565b92915050565b5f819050919050565b5f6113c86113c36113be8461134d565b6113a5565b61134d565b9050919050565b5f6113d9826113ae565b9050919050565b5f6113ea826113cf565b9050919050565b6113fa816113e0565b82525050565b5f6020820190506114135f8301846113f1565b92915050565b61142281611267565b82525050565b5f60208201905061143b5f830184611419565b92915050565b61144a8161136c565b8114611454575f5ffd5b50565b5f8135905061146581611441565b92915050565b5f602082840312156114805761147f611263565b5b5f61148d84828501611457565b91505092915050565b7f4e487b71000000000000000000000000000000000000000000000000000000005f52601160045260245ffd5b5f6114cd82611267565b91506114d883611267565b92508282019050808211156114f0576114ef611496565b5b92915050565b5f81905092915050565b50565b5f61150e5f836114f6565b915061151982611500565b5f82019050919050565b5f61152d82611503565b9150819050919050565b5f60408201905061154a5f830185611419565b6115576020830184611419565b939250505056fea26469706673582212203f77eb78963a78f946f1af0d373204b744a5027395e70db670eab3e5cef53e1764736f6c63430008210033",
    "linkReferences": {}
  },
  "methodIdentifiers": {
    "CUSTOMER()": "7234b502",
    "FREELANCER()": "b8f7c8d3",
    "USDC()": "89a30271",
    "approveCustomer()": "4f0d2673",
    "approveFreelancer()": "1d20941b",
    "approveSystem(bool)": "3793343c",
    "customerApproved()": "4e0fc531",
    "depositPol()": "0866ce1d",
    "depositUsdc(uint256)": "2357928e",
    "freelancerApproved()": "f40a9ce4",
    "owner()": "8da5cb5b",
    "polDeposited()": "e1dbb339",
    "renounceOwnership()": "715018a6",
    "resolved()": "3f6fa655",
    "transferOwnership(address)": "f2fde38b",
    "usdcDeposited()": "a486d4c4"
  },
  "id": 26
}